:100000000C94B1000C94CE000C94CE000C94CE0055
:100010000C94CE000C94CE000C94CE000C94CE0028
:100020000C94CE000C94CE000C94CE000C94CE0018
:100030000C94CE000C94CE000C94CE000C94CE0008
:100040000C94CE000C94CE000C94CE000C94CE00F8
:100050000C94CE000C94CE000C94CE000C94CE00E8
:100060000C94CE000C94CE0000407A10F35A00A0FD
:10007000724E18090010A5D4E80000E87648170071
:1000800000E40B54020000CA9A3B000000E1F505B1
:10009000000080969800000040420F000000A086FB
:1000A00001000000102700000000E803000000002D
:1000B0006400000000000A000000000001000000D1
:1000C00000002C76D888DC674F0823DFC1DFAE59EB
:1000D000E1B1B796E5E3E453C63AE651997696E87E
:1000E000E6C28426EB898C9B62ED407C6FFCEFBC02
:1000F0009C9F40F2BAA56FA5F490055A2AF75C932D
:100100006B6CF9676DC11BFCE0E40D47FEF520E662
:10011000B500D0ED902E0300943577050080841E45
:10012000080000204E0A000000C80C333333330FA0
:10013000986E12831141EF8D2114893BE65516CF3D
:10014000FEE6DB18D1844B381BF77C1D901DA4BB49
:10015000E424203284725E228100C9F124ECA1E5FE
:100160003D2711241FBECFEFD8E0DEBFCDBF11E089
:10017000A0E0B1E0ECE8F0E102C005900D92AA36F3
:10018000B107D9F721E0AAE6B1E001C01D92A83776
:10019000B207E1F70E94DD020C9444080C940000C1
:1001A0002E9A00002E98089595B1907F95B995B13B
:1001B00082958F70982B95B90E94D0000895CF93A7
:1001C000C82F2D9A0E94D4008C2F8295807F0E9488
:1001D000D4008FE08A95F1F70000CF910895CF9376
:1001E000C82F2D980E94D4008C2F8295807F0E946A
:1001F000D4008EE08A95F1F7CF91089581E00E94B6
:10020000EF0083EF91E00197F1F700C0000008953F
:1002100084B18F6684B985B1807985B985EA9EE01D
:100220000197F1F700C0000080E30E94D40081EE46
:1002300094E00197F1F700C000000E94D00089EF20
:1002400090E00197F1F700C000000E94D00089EF14
:1002500090E00197F1F700C0000080E20E94D40016
:1002600081EE94E00197F1F700C0000088E20E945F
:10027000EF008CE00E94EF0086E00E94EF000E94F9
:10028000FE000895613041F028F0623039F06330AB
:1002900039F00895805805C0805403C0805701C0CC
:1002A00080530E94EF000895CF93DF93EC01888183
:1002B000882331F021960E94DF0089918111FBCFC4
:1002C000DF91CF9108955E9808955E9A2C9A0E94CE
:1002D00008010E94FE0008958F929F92AF92BF92F4
:1002E000CF92DF92EF92FF92CF93DF93EC014A011E
:1002F0005B0124EA30E74DE75FE3688179818A8119
:100300009B810E9429056B017C012AE037ED43E2C5
:100310005CE3C501B4010E9429059B01AC01C70142
:10032000B6010E942F04688379838A839B83DF91BF
:10033000CF91FF90EF90DF90CF90BF90AF909F90C4
:100340008F9008953C9A559A279A569A249A519AD2
:10035000529848984B985B9AECE6F1E01182108233
:1003600081E090E09383828308950F931F93CF934E
:10037000DF93CDB7DEB760970FB6F894DEBF0FBE40
:10038000CDBF8E010F5F1F4F0E94BE05C8010E94A6
:10039000540160960FB6F894DEBF0FBECDBFDF915B
:1003A000CF911F910F91089560E080E00E9442017B
:1003B00084E391E00E94540161E080E00E944201E8
:1003C000609118017091190180911A0190911B019F
:1003D00021E030E044E050E00E94B50182E491E089
:1003E0000E94540160912C0170912D0180912E0189
:1003F00090912F0121E030E044E050E00E94B501EF
:1004000085E491E00E9454010895AC01ECE7F0E02E
:100410009081907F90832081CA0166E070E00E9405
:100420009605822B80830895AF92BF92CF92DF9280
:10043000EF92FF920F931F93CF93DF930F2EF6E06F
:10044000EF2EF12CF02DCAE7D0E00F2EF8E7AF2EFB
:10045000B12CF02D0F2EF6E0CF2ED12CF02D88816F
:1004600080648883888186FDFDCF00916A011091A8
:100470006B010230110509F43FC03CF40115110570
:1004800079F00130110511F176C00430110509F43D
:1004900053C00CF441C00530110509F45DC06BC0B8
:1004A000F5016081718180E090E00E949B042CE660
:1004B00035E844EF5CE30E942905609330017093B6
:1004C0003101809332019093330155C0F501608171
:1004D000718180E090E00E949B0422E03FE246E6CA
:1004E0005CE30E94290560932C0170932D01809399
:1004F0002E0190932F013FC0F5016081718180E052
:1005000090E00E949B0460932801709329018093DE
:100510002A0190932B012FC0F5016081718180E049
:1005200090E00E949B0460932401709325018093C6
:100530002601909327011FC0F5016081718180E041
:1005400090E00E949B0460932001709321018093AE
:100550002201909323010FC0F5016081718180E039
:1005600090E00E949B0460931C0170931D01809396
:100570001E0190931F01C8010196B6010E949605C5
:1005800090936B0180936A01880F991FFC01E459D5
:10059000FE4F808191810E940502F1E0EF1AF1087F
:1005A00009F05DCFDF91CF911F910F91FF90EF90F8
:1005B000DF90CF90BF90AF900895E4E6F0E08081A7
:1005C000866880830E94A20187EA91E60197F1F78D
:1005D00000C000005C9AE3EFF1E03197F1F700C052
:1005E00000005D9A2F9A2C9A0E9408010E94FE003A
:1005F00060E080E00E94420187E491E00E945401A3
:1006000061E080E00E94420188E591E00E9454018F
:10061000ECE7F0E0808180648083EAE7F0E08081AD
:10062000836C80830E94140280913001909131018B
:10063000A0913201B0913301809318019093190178
:10064000A0931A01B0931B0180912C0190912D0170
:10065000A0912E01B0912F01809314019093150168
:10066000A0931601B0931701809128019091290160
:10067000A0912A01B0912B01809310019093110158
:10068000A0931201B0931301809124019091250150
:10069000A0912601B091270180930C0190930D0148
:1006A000A0930E01B0930F01809120019091210140
:1006B000A0912201B0912301809308019093090138
:1006C000A0930A01B0930B0180911C0190911D0130
:1006D000A0911E01B0911F01809304019093050128
:1006E000A0930601B09307014A9B06C0F3E0FA9578
:1006F000F1F700004A99FACFE12CF12C01E010E06B
:10070000CFEFDFEF8E2D9F2D0FC021E22A95F1F75D
:1007100000000196843691053CF05C98E7EAF1E62A
:100720003197F1F700C000004A99EFCF0E94140200
:1007300040912C0150912D0160912E0170912F015B
:1007400084E191E00E946C014091300150913101AF
:10075000609132017091330188E191E00E946C0157
:10076000409128015091290160912A0170912B013B
:1007700080E191E00E946C0140912401509125019B
:1007800060912601709127018CE091E00E946C013C
:10079000409120015091210160912201709123012B
:1007A00088E091E00E946C0140911C0150911D0174
:1007B00060911E0170911F0184E091E00E946C0124
:1007C000489B11C010930101009300018091020128
:1007D0009091030181309105F1F082309105B9F0DB
:1007E000892BB9F411C0E0920001F09201018091CF
:1007F0000201909103018130910591F082309105C1
:1008000091F0892B91F413C00E94650104C00E94ED
:1008100065010E94650110930301009302010BC062
:100820000E94630104C00E9463010E946301E09280
:100830000201F0920301D0930101C0930001809165
:10084000020190910301019711F40E94D40183ECFD
:1008500099E00197F1F700C0000054CF5058BB2732
:10086000AA270E9446040C94EF040E94E10438F089
:100870000E94E80420F039F49F3F19F426F40C9408
:10088000DE040EF4E095E7FB0C94D804E92F0E94F7
:10089000000558F3BA17620773078407950720F01D
:1008A00079F4A6F50C9422050EF4E0950B2EBA2FE0
:1008B000A02D0B01B90190010C01CA01A001112466
:1008C000FF27591B99F0593F50F4503E68F11A1612
:1008D000F040A22F232F342F4427585FF3CF4695A3
:1008E00037952795A795F0405395C9F77EF41F16C5
:1008F000BA0B620B730B840BBAF09150A1F0FF0F8F
:10090000BB1F661F771F881FC2F70EC0BA0F621F7A
:10091000731F841F48F4879577956795B795F7956A
:100920009E3F08F0B0CF9395880F08F09927EE0FFF
:10093000979587950895E89409C097FB3EF49095A4
:100940008095709561957F4F8F4F9F4F9923A9F0A8
:10095000F92F96E9BB279395F69587957795679537
:10096000B795F111F8CFFAF4BB0F11F460FF1BC07B
:100970006F5F7F4F8F4F9F4F16C0882311F096E90E
:1009800011C0772321F09EE8872F762F05C06623BC
:1009900071F096E8862F70E060E02AF09A95660F75
:1009A000771F881FDAF7880F9695879597F908952E
:1009B00097F99F6780E870E060E008959FEF80EC12
:1009C000089500240A9416161706180609060895B5
:1009D00000240A9412161306140605060895092E1B
:1009E0000394000C11F4882352F0BB0F40F4BF2B8A
:1009F00011F460FF04C06F5F7F4F8F4F9F4F0895CA
:100A000057FD9058440F551F59F05F3F71F04795BF
:100A1000880F97FB991F61F09F3F79F087950895A4
:100A2000121613061406551FF2CF4695F1DF08C0C3
:100A3000161617061806991FF1CF869571056105E0
:100A400008940895E894BB2766277727CB0197F988
:100A500008950E943C050C94EF040E94E10438F0D4
:100A60000E94E80420F0952311F00C94D8040C9413
:100A7000DE0411240C9423050E94000570F3959F59
:100A8000C1F3950F50E0551F629FF001729FBB2785
:100A9000F00DB11D639FAA27F00DB11DAA1F649F21
:100AA0006627B00DA11D661F829F2227B00DA11DD4
:100AB000621F739FB00DA11D621F839FA00D611D5A
:100AC000221F749F3327A00D611D231F849F600D7B
:100AD000211D822F762F6A2F11249F5750409AF0A4
:100AE000F1F088234AF0EE0FFF1FBB1F661F771F30
:100AF000881F91505040A9F79E3F510580F00C94FB
:100B0000D8040C9423055F3FE4F3983ED4F3869514
:100B100077956795B795F795E7959F5FC1F7FE2B9A
:100B2000880F911D9695879597F9089597FB072E45
:100B300016F4009407D077FD09D00E94AA0507FC9F
:100B400005D03EF4909581959F4F089570956195DD
:100B50007F4F0895AA1BBB1B51E107C0AA1FBB1FF3
:100B6000A617B70710F0A61BB70B881F991F5A9539
:100B7000A9F780959095BC01CD010895EF920F9350
:100B80001F93CF93DF93E80147FD02C034E001C01B
:100B900034E1E42F440FFF0BF7FF03C0F195E1951B
:100BA000F109E32E022F2E2FAE010E94DE05CE01A9
:100BB000DF91CF911F910F91EF9008954F925F9227
:100BC0006F927F929F92AF92BF92CF92DF92EF92FD
:100BD000FF920F931F93CF93DF93CDB7DEB7299783
:100BE0000FB6F894DEBF0FBECDBF6A01122FB02E34
:100BF0002BE3201720F0FF24F394F00E02C0BCE397
:100C0000FB2E0F2D27E0AE014F5F5F4F0E946C0758
:100C1000AC018981982F9970913031F0E1FC06C0C8
:100C2000E0FE06C090E205C09DE203C09BE201C069
:100C300090E0EE2DE07183FF3CC0911102C083E093
:100C400001C084E0811718F4212F281B01C020E087
:100C5000E1110BC0F601822F30E2882319F03193A5
:100C60008150FBCFC20ED11C20E0992329F0D60180
:100C70009C93F60131966F01C6010396E2FE0AC00D
:100C80003EE4D6013C9341E411964C9311971296A1
:100C90003C9306C03EE6F601308341E64183328351
:100CA000FC01322F40E2332309F442C0419331501A
:100CB000FACF82FF44C0911102C083E001C084E0FA
:100CC000811718F4212F281B01C020E0E1110BC06F
:100CD000F601822F30E2882319F031938150FBCF47
:100CE000C20ED11C20E0992329F0D6019C93F60175
:100CF00031966F01C6010396E2FE0BC039E4D601BE
:100D00003C933EE411963C93119736E412963C9343
:100D100007C039E6F60130833EE6318336E632839A
:100D2000FC01322F40E2332319F041933150FBCFC5
:100D3000FC01E20FF11D10828EEF9FEFB7C0F1E0D2
:100D4000911101C0F0E06F2F70E01416150624F425
:100D50009A012F5F3F4F02C021E030E0260F371F7E
:100D6000BB2029F06B2D70E06F5F7F4F02C060E009
:100D700070E0260F371F612F70E0261737071CF42D
:100D8000121B212F01C020E03E2D387159F4D601ED
:100D9000322F60E2332319F06D933150FBCFC20E36
:100DA000D11C20E0FF2331F0D6019C93B6016F5F88
:100DB0007F4F6B01E1110BC0F601922F30E39923B5
:100DC00019F031939150FBCFC20ED11C20E09F2D22
:100DD000940F3A81782F7071A72E84FF03C03133AE
:100DE00009F49150191624F4993018F098E001C0D4
:100DF00091E0E42F852F57FF02C0E0E080E06E2FE6
:100E0000782FE0E0F0E0AEE29A2E3A01691A71081C
:100E10002A01461A570A0B2D10E011950195110968
:100E20006F3F8FEF780729F4D6019C92C601019697
:100E30006C014617570784F0661677066CF47F013D
:100E4000E40CF51CA1E0B0E0AC0FBD1FEA0EFB1EE8
:100E5000D7011196BC9002C090E3B92E6150710980
:100E60003196C60101967C016017710724F0D60106
:100E7000BC926C01D5CF6417750741F4363320F46A
:100E8000353321F4A11002C081E3B82EF601B082FF
:100E9000F701822F90E2882319F091938150FBCFC4
:100EA000F701E20FF11D108280E090E029960FB665
:100EB000F894DEBF0FBECDBFDF91CF911F910F9190
:100EC000FF90EF90DF90CF90BF90AF909F907F907A
:100ED0006F905F904F900895283008F027E03327F7
:100EE000DA01990F311D87FD91600096610571054A
:100EF00039F432602E5F3D9330E32A95E1F708958F
:100F00009F3F30F080387105610509F03C5F3C5F20
:100F10003D93913008F08068911DDF93CF931F932C
:100F20000F93FF92EF92192F987F9695E92F969540
:100F30009695E90FFF27EE53FF4F99273327EE24AD
:100F4000FF24A701E70105900894079428F4360FC1
:100F5000E71EF81E491F511D660F771F881F991F36
:100F60000694A1F70590079428F4E70EF81E491F90
:100F7000561FC11D770F881F991F661F0694A1F782
:100F80000590079428F4F80E491F561FC71FD11D5E
:100F9000880F991F661F771F0694A1F70590079485
:100FA00020F4490F561FC71FD81F990F661F771FC0
:100FB000881F0694A9F784911095177041F0D69573
:100FC000C79557954795F794E7941A95C1F7E8E6C2
:100FD000F0E0689415901591359165919591059083
:100FE0007FE27395E118F10A430B560BC90BD00948
:100FF000C0F7E10CF11E431F561FC91FD01D7EF420
:10100000703311F48A95E6CFE894015030F0080F60
:101010000AF40027021708F4202F2395022F7A33B1
:1010200028F079E37D932A95E9F710C07D932A95FE
:1010300089F6069497956795379517951794E11853
:10104000F10A430B560BC90BD00998F023957E91FA
:1010500073957A3308F070E37C932013B8F77E9190
:1010600070617D9330F0839571E37D9370E32A95F1
:10107000E1F71124EF90FF900F911F91CF91DF9135
:0C108000992787FD90950895F894FFCF04
:10108C00FFFFFFFF000080BF000080BF000080BF9B
:10109C00000080BF000080BF000080BF000080BF48
:1010AC00000080BF000080BF000080BF000080BF38
:1010BC00000080BF4D41494E5320504F574552457B
:1010CC00440056200056002020202057454C434F0A
:1010DC004D45212020202000204B7269732069731C
:0A10EC007420737570657220000017
:00000001FF
