:100000000C9434000C9451000C9451000C94510049
:100010000C9451000C9451000C9451000C9451001C
:100020000C9451000C9451000C9451000C9451000C
:100030000C9451000C9451000C9451000C945100FC
:100040000C9451000C9451000C9451000C945100EC
:100050000C9451000C9451000C9451000C945100DC
:100060000C9451000C94510011241FBECFEFD8E026
:10007000DEBFCDBF11E0A0E0B1E0E4E2F9E002C0F4
:1000800005900D92A235B107D9F721E0A2E5B1E0C4
:1000900001C01D92A036B207E1F70E9401020C9444
:1000A00090040C9400002E9A00002E98089595B1AB
:1000B000907F95B995B182958F70982B95B90E94D4
:1000C00053000895CF93C82F2D9A0E9457008C2F6C
:1000D0008295807F0E9457008FE08A95F1F700009B
:1000E000CF910895CF93C82F2D980E9457008C2F41
:1000F0008295807F0E9457008EE08A95F1F7CF911C
:10010000089581E00E94720083EF91E00197F1F77A
:1001100000C00000089584B18F6684B985B18079EC
:1001200085B985EA9EE00197F1F700C0000080E301
:100130000E94570081EE94E00197F1F700C00000A3
:100140000E94530089EF90E00197F1F700C0000092
:100150000E94530089EF90E00197F1F700C0000082
:1001600080E20E94570081EE94E00197F1F700C011
:10017000000088E20E9472008CE00E94720086E01B
:100180000E9472000E9481000895613041F028F0C1
:10019000623039F0633039F00895805805C08054DA
:1001A00003C0805701C080530E9472000895CF930E
:1001B000DF93EC018881882331F021960E94620050
:1001C00089918111FBCFDF91CF9108958F929F92FA
:1001D000AF92BF92CF92DF92EF92FF92CF93DF93D5
:1001E000EC014A015B0124EA30E74DE75FE36881F7
:1001F00079818A819B810E94FB036B017C012AE04B
:1002000037ED43E25CE3C501B4010E94FB039B01AF
:10021000AC01C701B6010E940103688379838A8318
:100220009B83DF91CF91FF90EF90DF90CF90BF90B5
:10023000AF909F908F9008953C9A559A279A569A1E
:10024000249A519A52984898E4E5F1E0118210827C
:1002500081E090E0938382830895AC01ECE7F0E0C5
:100260009081907F90832081CA0166E070E00E94B7
:100270006804822B80830895AF92BF92CF92DF9261
:10028000EF92FF920F931F93CF93DF930F2EF6E021
:10029000AF2EB12CF02D0AE710E00F2EF8E7CF2E8D
:1002A000D12CF02D0F2EF6E0EF2EF12CF02DF801D1
:1002B000808180648083808186FF93C0C0915201D9
:1002C000D0915301C230D105F1F134F4209779F087
:1002D000C130D10511F176C0C430D10509F453C045
:1002E0000CF441C0C530D10509F45DC06BC0F60106
:1002F0006081718180E090E00E946D032CE635E81A
:1003000044EF5CE30E94FB0360932C0170932D018A
:1003100080932E0190932F0155C0F6016081718169
:1003200080E090E00E946D0322E03FE246E65CE35D
:100330000E94FB0360932C0170932D0180932E018A
:1003400090932F013FC0F6016081718180E090E0C1
:100350000E946D0360932401709325018093260110
:10036000909327012FC0F6016081718180E090E0B9
:100370000E946D03609320017093210180932201FC
:10038000909323011FC0F6016081718180E090E0AD
:100390000E946D0360931C0170931D0180931E01E8
:1003A00090931F010FC0F6016081718180E090E0A1
:1003B0000E946D03609318017093190180931A01D4
:1003C00090931B01CE010196B7010E94680490939F
:1003D0005301809352010E942D01F801808186FD16
:1003E0006DCFF1E0AF1AB10809F061CFDF91CF9185
:1003F0001F910F91FF90EF90DF90CF90BF90AF9043
:100400000895E4E6F0E08081866880830E941C0104
:1004100087EA91E60197F1F700C000005C9AE3EFEC
:10042000F1E03197F1F700C000005D9A2F9A5E9AD3
:100430002C9A0E948B000E94810060E080E00E9464
:10044000C50080E391E00E94D70061E080E00E9457
:10045000C50081E491E00E94D700ECE7F0E08081E4
:1004600080648083EAE7F0E08081836C80830E946F
:100470003C0180912C0190912D01A0912E01B09111
:100480002F018093140190931501A0931601B0934E
:1004900017018091280190912901A0912A01B09122
:1004A0002B018093100190931101A0931201B0933E
:1004B00013018091240190912501A0912601B09112
:1004C000270180930C0190930D01A0930E01B0932E
:1004D0000F018091200190912101A0912201B09102
:1004E00023018093080190930901A0930A01B0931E
:1004F0000B0180911C0190911D01A0911E01B091F2
:100500001F018093040190930501A0930601B0930D
:1005100007018091180190911901A0911A01B091E1
:100520001B018093000190930101A0930201B093FD
:100530000301D0E0C0E08D2F9C2F0FC0F1E2FA95AF
:10054000F1F7000001968436910539F45C98E7EAEA
:10055000F1E63197F1F700C000004A99EFCF0E9411
:100560003C01409128015091290160912A0170912C
:100570002B0180E191E00E94E60040912C01509116
:100580002D0160912E0170912F0184E191E00E9474
:10059000E60040912401509125016091260170915F
:1005A00027018CE091E00E94E600409120015091EB
:1005B0002101609122017091230188E091E00E9465
:1005C000E60040911C0150911D0160911E01709147
:1005D0001F0184E091E00E94E600409118015091D3
:1005E000190160911A0170911B0180E091E00E9455
:1005F000E60083EC99E00197F1F700C000009BCF83
:100600005058BB27AA270E9418030C94C1030E94CC
:10061000B30338F00E94BA0320F039F49F3F19F475
:1006200026F40C94B0030EF4E095E7FB0C94AA03B7
:10063000E92F0E94D20358F3BA17620773078407A1
:10064000950720F079F4A6F50C94F4030EF4E095E8
:100650000B2EBA2FA02D0B01B90190010C01CA017C
:10066000A0011124FF27591B99F0593F50F4503E27
:1006700068F11A16F040A22F232F342F4427585F19
:10068000F3CF469537952795A795F0405395C9F731
:100690007EF41F16BA0B620B730B840BBAF09150E9
:1006A000A1F0FF0FBB1F661F771F881FC2F70EC088
:1006B000BA0F621F731F841F48F48795779567955B
:1006C000B795F7959E3F08F0B0CF9395880F08F047
:1006D0009927EE0F979587950895E89409C097FBA1
:1006E0003EF490958095709561957F4F8F4F9F4F09
:1006F0009923A9F0F92F96E9BB279395F69587954D
:1007000077956795B795F111F8CFFAF4BB0F11F40F
:1007100060FF1BC06F5F7F4F8F4F9F4F16C08823B6
:1007200011F096E911C0772321F09EE8872F762FEC
:1007300005C0662371F096E8862F70E060E02AF02D
:100740009A95660F771F881FDAF7880F9695879519
:1007500097F9089597F99F6780E870E060E0089541
:100760009FEF80EC089500240A94161617061806C9
:100770000906089500240A941216130614060506A5
:100780000895092E0394000C11F4882352F0BB0F36
:1007900040F4BF2B11F460FF04C06F5F7F4F8F4F99
:1007A0009F4F089557FD9058440F551F59F05F3FD4
:1007B00071F04795880F97FB991F61F09F3F79F083
:1007C00087950895121613061406551FF2CF469505
:1007D000F1DF08C0161617061806991FF1CF869587
:1007E0007105610508940895E894BB27662777276B
:1007F000CB0197F908950E940E040C94C1030E9446
:10080000B30338F00E94BA0320F0952311F00C9442
:10081000AA030C94B00311240C94F5030E94D20394
:1008200070F3959FC1F3950F50E0551F629FF00143
:10083000729FBB27F00DB11D639FAA27F00DB11D5C
:10084000AA1F649F6627B00DA11D661F829F2227E5
:10085000B00DA11D621F739FB00DA11D621F839F6C
:10086000A00D611D221F749F3327A00D611D231F42
:10087000849F600D211D822F762F6A2F11249F5790
:1008800050409AF0F1F088234AF0EE0FFF1FBB1F93
:10089000661F771F881F91505040A9F79E3F510552
:1008A00080F00C94AA030C94F5035F3FE4F3983EA8
:1008B000D4F3869577956795B795F795E7959F5FFC
:1008C000C1F7FE2B880F911D9695879597F908958E
:1008D00097FB072E16F4009407D077FD09D00E94ED
:1008E0007C0407FC05D03EF4909581959F4F0895B8
:1008F000709561957F4F0895AA1BBB1B51E107C0FE
:10090000AA1FBB1FA617B70710F0A61BB70B881F9F
:10091000991F5A95A9F780959095BC01CD0108952E
:04092000F894FFCF79
:10092400000080BF000080BF000080BF000080BFC7
:10093400000080BF000080BF000080BF000080BFB7
:10094400000080BF000080BF000080BF000080BFA7
:100954002020202057454C434F4D45212020202066
:1009640000204B726973206973742073757065720B
:02097400200061
:00000001FF
